{
  "contractName": "Card",
  "abi": [
    {
      "anonymous": false,
      "inputs": [
        {
          "indexed": true,
          "name": "card",
          "type": "uint256"
        },
        {
          "indexed": true,
          "name": "proof",
          "type": "uint256"
        },
        {
          "indexed": true,
          "name": "content",
          "type": "uint256"
        }
      ],
      "name": "CardOpened",
      "type": "event"
    },
    {
      "constant": false,
      "inputs": [
        {
          "name": "card",
          "type": "uint256"
        },
        {
          "name": "proof",
          "type": "uint256"
        },
        {
          "name": "content",
          "type": "uint256"
        }
      ],
      "name": "validateCard",
      "outputs": [],
      "payable": false,
      "stateMutability": "nonpayable",
      "type": "function"
    },
    {
      "constant": true,
      "inputs": [
        {
          "name": "card",
          "type": "uint256"
        }
      ],
      "name": "viewCard",
      "outputs": [
        {
          "name": "",
          "type": "uint256"
        },
        {
          "name": "",
          "type": "uint256"
        }
      ],
      "payable": false,
      "stateMutability": "view",
      "type": "function"
    }
  ],
  "bytecode": "0x608060405234801561001057600080fd5b50610345806100206000396000f30060806040526004361061004c576000357c0100000000000000000000000000000000000000000000000000000000900463ffffffff16806354d12a3a146100515780639fd7d22614610099575b600080fd5b34801561005d57600080fd5b5061007c600480360381019080803590602001909291905050506100da565b604051808381526020018281526020019250505060405180910390f35b3480156100a557600080fd5b506100d860048036038101908080359060200190929190803590602001909291908035906020019092919050505061012a565b005b60008060008084815260200190815260200160002060006002811015156100fd57fe5b0154600080858152602001908152602001600020600160028110151561011f57fe5b015491509150915091565b6000610137848484610219565b90508015156101ae576040517f08c379a00000000000000000000000000000000000000000000000000000000081526004018080602001828103825260168152602001807f77726f6e672070726f6f66206f7220636f6e74656e740000000000000000000081525060200191505060405180910390fd5b6040805190810160405280848152602001838152506000808681526020019081526020016000209060026101e39291906102b4565b508183857f828d4ffce5eb69b32a16265aaaac2d9e975355de83f659ba081f9f131463ee3a60405160405180910390a450505050565b6000828260405160200180838152602001828152602001925050506040516020818303038152906040526040518082805190602001908083835b6020831015156102785780518252602082019150602081019050602083039250610253565b6001836020036101000a038019825116818451168082178552505050505050905001915050604051809103902060019004841490509392505050565b82600281019282156102e3579160200282015b828111156102e25782518255916020019190600101906102c7565b5b5090506102f091906102f4565b5090565b61031691905b808211156103125760008160009055506001016102fa565b5090565b905600a165627a7a72305820baa76c39e4074daf652a2a8f89bd557c10aa6796141b2380b4c186dda7f203c50029",
  "source": "// SPDX-License-Identifier: MIT\npragma solidity >=0.4.22 <0.9.0;\nimport \"./interfaces/ICard.sol\";\n\n/**\n * @dev Implementation of the `ICard` interface.\n *\n * We realize the card playing and verification through keccak256.\n * Through this contract, users can submit unknown but verifiable privacy information.\n *\n * Each card has the following two states\n * 1. Unknown: there is only the hash information of the card on the chain.\n *    The user needs to submit proof and privacy content and pass keccak256 authentication to change its status\n * 2. Verified: all information of the card can be obtained at this time\n *\n * Note that the user's privacy information cannot be set to 0\n */\ncontract Card is ICard {\n    mapping(uint256 => uint256[2]) cards;\n\n    /**\n     * @dev Open the card with proof and content\n     */\n    function validateCard(\n        uint256 card,\n        uint256 proof,\n        uint256 content\n    ) external {\n        bool validate = _validateProof(card, proof, content);\n        require(validate, \"wrong proof or content\");\n        cards[card] = [proof, content];\n        emit CardOpened(card, proof, content);\n    }\n\n    /**\n     * @dev get the card from contract\n     *\n     * Returns the proof and conttent.\n     *\n     * Note if the card is not opened,returns should be zero\n     */\n    function viewCard(uint256 card) external view returns (uint256, uint256) {\n        return (cards[card][0], cards[card][1]);\n    }\n\n    function _validateProof(\n        uint256 card,\n        uint256 proof,\n        uint256 content\n    ) private view returns (bool) {\n        return (card == uint256(keccak256(abi.encodePacked(proof, content))));\n    }\n}\n",
  "sourcePath": "/home/zhangk/Documents/github/cpchain-dapps-card/contracts/Card.sol",
  "compiler": {
    "name": "solc",
    "version": "0.4.25+commit.59dbf8f1.Linux.g++"
  },
  "schemaVersion": "3.4.4",
  "updatedAt": "2022-04-26T08:46:40.020Z",
  "devdoc": {
    "methods": {
      "validateCard(uint256,uint256,uint256)": {
        "details": "Open the card with proof and content"
      },
      "viewCard(uint256)": {
        "details": "get the card from contract     * Returns the proof and conttent.     * Note if the card is not opened,returns should be zero"
      }
    }
  },
  "userdoc": {
    "methods": {}
  }
}